:020000040800F2
:1000000050160020D5000008FB000008FD00000885
:1000100000000000000000000000000000000000E0
:10002000000000000000000000000000FF000008C9
:100030000000000000000000010100080523000886
:100040000501000805010008050100080501000878
:100050000501000805010008050100080501000868
:100060000501000805010008050100080501000858
:100070000501000805010008050100080501000848
:100080000501000800000000000000000501000854
:100090000000000005010008050100080501000836
:1000A00000000000711F000805010008050100089C
:1000B000050100080000000005010008D92F000814
:1000C0000348854600F05AF80048004721300008F0
:1000D000501600200C4880F308880C480168090E6F
:1000E0000B4A914205D10B480B4901600B480C4962
:1000F00001600C4880470C480047FEE7FEE7FEE73A
:10010000FEE7FEE7FEE700005016002004000000B6
:100110001F00000018100240010000000000014014
:1001200000000000B1230008C100000830B50B46F4
:10013000014600202022012409E00D46D5409D42C1
:1001400005D31D469540491B254695404019154647
:10015000521E002DF1DC30BD03460B439B0703D03C
:1001600009E008C9121F08C0042AFAD203E00B787C
:100170000370401C491C521EF9D27047064C0125E1
:10018000064E05E0E36807CC2B430C3C984710343F
:10019000B442F7D3FFF798FFDC300008FC300008CA
:1001A00070B58C180578401C6B075B0F01D1037884
:1001B000401C2A1106D10278401C03E006780E701C
:1001C000401C491C5B1EF9D12B0705D40023521E8D
:1001D0000DD40B70491CFAE70378401CCB1A921C13
:1001E00003E01D780D70491C5B1C521EF9D5A1421D
:1001F000D8D3002070BD000010B50B4604280EDDDA
:1002000020280CD0212802D0222808D102E0072281
:10021000044802E0072203491846FFF79DFF00202B
:1002200010BD0000140000200020704710B5074CDE
:1002300005480022211DA06002F0D1F92146A068E6
:1002400002F0C3F9002010BD88090020080000203A
:1002500010B50348806802F092F9002010BD00003C
:100260000800002070B50F4C0D46A168FF31FF312A
:1002700002318969FF31FF3102314969002901D01A
:10028000012070BD014607482A46001DFFF764FFA4
:1002900004492A46091DA06802F0A1F9A06802F0ED
:1002A000E3F970BD08000020F8B5002389E00124BF
:1002B0009C402A46A44622407ED04C68022C01D0A5
:1002C000122C0CD1DC08A40027183C6A5D07ED0E47
:1002D0000F26AE40B4430E69AE4026433E62056829
:1002E0005E000324B4400F79A543BF07BF0FB7409A
:1002F0002F4307604D68012D05D0022D03D0112D2D
:1003000001D0122D0ED18568CF68A543B7402F4389
:10031000876047686546AF430D79ED06ED0F9D4058
:100320003D434560C568A5438C68B4402C43C46018
:100330004C68E40044D5264CA56901263543A561E7
:10034000A4699D0834400094224CAD002F19BC686C
:100350009D072E0F0F25B540AC430925ED06A84299
:1003600001D100250AE01C4DA84201D1012505E07C
:100370001A4DA84201D1022500E00525B5402543CC
:10038000BD60174C25684E689543F60300D51543AC
:10039000256065684E689543B60300D515436560D2
:1003A000A5684E689543F60200D51543A560E5683B
:1003B0004E689543B60200E002E000D51543E560C3
:1003C0005B1C0A681546DA4000D070E7F8BD0000F3
:1003D00000100240000001400004004800080048EE
:1003E000000401400069084000D001207047002A45
:1003F00001D0816170478162704700000148006848
:10040000704700006000002002480168491C01603C
:10041000704700006000002010B5064801681022F7
:1004200011430160002000F007F800F017F80020E9
:1004300010BD00000020024010B5044600F02CFF63
:100440007D21C900FFF772FE01F01AFB0022214650
:10045000501E00F01FF8002010BD000008B507482E
:10046000816901221143816180691040002200905E
:100470001146501E00F00EF808BD000000100240AA
:10048000C106C90E0120884001490860704700007C
:1004900000E100E010B501F079FB10BD10B50C06CD
:1004A00006D54906490E1C2461430818283004E08B
:1004B0001C2461430818FF30093099B2002A06D085
:1004C00001228272C180190C0181002010BD00221E
:1004D00082728180F9E71C224A43121810B5FF305E
:1004E000FF300230926BC06902F057FA10BD1C2237
:1004F0004A43121810B5FF30FF32FF30013202308C
:100500009269C06902F0A4FA10BD0000F0B54B0674
:100510005B0E1C461C225343CD091A18002D01D036
:10052000283201E0FF32093203461470C909FF3353
:100530005170E133197A01293DD001211972947A61
:100540004C49002C547838D0002C147805685FD0C2
:10055000A4002E5B760404D52E5B474F0E403E432D
:100560002E5314780568A4002E5B760604D52E5B06
:10057000424F0E403E432E5314780568A4002E5B74
:100580000E403D490E432E53117806688D00715B75
:10059000384C30342140394C403C21437153016880
:1005A00010788200885A344DF13D2840204388520B
:1005B00000201872F0BD0220F0BD002C11D014787C
:1005C0000568A4002E5B760604D52E5B0E402B49F1
:1005D0000E432E53046810788100605A254A303249
:1005E00010E015780468AD00665B760404D5665BA0
:1005F0000E4021490E436653046810788100605A0A
:100600001D4AF13A10401D4A403A10436052CFE76C
:10061000A4002E5B760404D52E5B174F0E403E439C
:100620002E5314780568A4002E5B760604D52E5B45
:10063000124F0E403E432E5314780568A4002E5BE3
:100640000E400E490E432E53117806688D00715BE3
:10065000094CF13C2140094C403C21437153056851
:1006600010788100685A034A3032104020436852A3
:100670009EE700008F8F000080C00000C080000057
:10068000F0B54B06CA095B0E002A04D01C225A435F
:100690001218283204E01C224A431218FF32093291
:1006A0000024947013700346C909FF335170E1337D
:1006B000197A01291DD00121197251781B4E002988
:1006C0001B4C1178056816D089006F5A7F0605D536
:1006D0006F5A3740164E403637436F5211780068D4
:1006E0008A00815A114D3035294010256940202556
:1006F00015E00220F0BD89006F5A7F0404D56F5ABF
:1007000037400C4E37436F52117800688A00815A87
:10071000084DF13D294001252D0369406D006940D8
:100720002143815200201872F0BD00008F8F00001D
:100730008080000080C000004906490E1C22514301
:100740000818FF300130008C80B27047F0B54D06BC
:100750006D0E2E461C246543CF092C18002F01D0A6
:10076000283401E0FF3409342670C909617001465C
:10077000FF31E260E131E3708C46097A01290DD046
:10078000012261460A72E2789A49002A08D0012AB9
:100790001FD0022A0ED0032A24D112E00220F0BD7D
:1007A000237802689D00535B0B40FF33FF33023315
:1007B000535317E02278036892009D5A0D409D52D2
:1007C00010E0237802689B00D55A0D4003214902AE
:1007D00006E0237802689B00D55A0D40012189026A
:1007E0006918D152237806689D00725B82490A40DD
:1007F00082490A431A437253A27A002A59D02278B6
:10080000076895007B5B7C4A7D4E134033437B53E6
:10081000E38850265D0803686D00F65AF6182378C1
:10082000DF0001239B02FB18F552238950265D0847
:1008300003686D00F65AF6182378DF004B11FB1899
:10084000F55263780768002B23787BD09B00FD5A14
:100850006D0404D5FD5A6B4E15403543FD52237887
:1008600007689B00FD5A6D0605D5FD5A634E15407D
:1008700040363543FD5225780368AD005E5B164077
:10088000604A16435E532278036895005A5B5A4EBD
:10089000303632400A435A53026820788300D05AD7
:1008A000584CF13C20400843D05200206146087269
:1008B000F0BD6278002AA28821D053080268502532
:1008C000AD5A5B00AD182278D60001229202B21810
:1008D000AB522278036892009D5A6D0606D59D5A48
:1008E000454E3540454E403635439D52026820788E
:1008F0008300D05A404C30342040202442E053083A
:1009000002685025AD5A5B00AD182278D6003E4AE9
:10091000B218AB52026850239B5A3B4D9A18237869
:10092000AD1CDB005B19D518E2683E2A0BD9D30257
:100930001B0CD20601D15B1E9BB29A020123DB0382
:100940001A4307E020E0D3031B0CD20701D05B1C45
:100950009BB29A022A802278036892009D5A6D0405
:1009600005D59D5A244E3540264E35439D5202688A
:1009700020788300D05A234CF13C204001242403EA
:100980006040640060408EE79B00FD5A6D0404D512
:10099000FD5A1C4E15403543FD52237807689B00D5
:1009A000FD5A6D0605D5FD5A144E154040363543A7
:1009B000FD5225780368AD005E5B16400F4A403259
:1009C00016435E532278036895005A5B0D4EF13E44
:1009D0003240012636037240760072400A435A5371
:1009E000036820788200985A034C30342040084332
:1009F00098525AE78F8900008F8F00008080000096
:100A00008081000080C0000004040000F0B54906A9
:100A1000490E1C244C432418FF34093463612261BD
:100A20000022A26103466270FF332170E133197A1C
:100A3000012908D0012119726569E1688D4204D944
:100A40006D1A656103E00220F0BD29466261A57A56
:100A5000002D05D06578002D19D0012D37D05AE032
:100A600005685026765B76192578EF00324D7D19A2
:100A700076193E293ED9CD022D0CC90637D0A902E0
:100A80000125ED03294300E0A902318043E0056818
:100A90005026765B76192578EF00274D2D1F7D199E
:100AA00076193E290AD9CD022D0CCF0601D16D1E33
:100AB000ADB2AD020127FF033D4306E0CD032D0C8F
:100AC000CF0701D06D1CADB2AD02358009E00568DD
:100AD0005026765B76192578EF00174D2D1F7D196E
:100AE00071536578002DBBD0012D0AD013E06D1E27
:100AF000ADB2C4E7CD032D0CC907C5D06D1CADB296
:100B0000C2E705685026765B76192578EF000A4D16
:100B10002D1F7D197153217800688C00015B074DF2
:100B2000294001252D0369406D006940044D29438A
:100B300001531A720020F0BD060400008FBF0000B0
:100B400080800000F0B50246FF32E132137A012BBB
:100B50000BD001244F06CB097F0E1472002B06D058
:100B60001C237B431B18283306E00220F0BD1C2306
:100B70004B431B18FF3309339C701F70CE095E7006
:100B8000012424031025114B002F0BD04906C90D59
:100B9000002E10D00468605A0D4E30406840184353
:100BA000605210E0016808880A4E3040604068409A
:100BB0001843088007E00568685A064E303E30400A
:100BC00060401843685200201072F0BD8080000021
:100BD000BF8F0000BFBF0000F0B506464806400EBC
:100BE0001C2141438D19EB630021AA632964012173
:100BF000283537466970FF372870E137387A012881
:100C000006D03972EC686869A04203D9001B03E082
:100C10000220F0BD044600206861A87A00280CD0AC
:100C2000297830688A00825A5306494A6B7839D548
:100C3000002B12D0012B2CD032E0A3B2AA88296954
:100C4000306801F072F930685021095A0918287883
:100C5000C200404810180C5268E050231B5AC900CB
:100C600018183C4B1B1DC91841183E2C08D9E0022E
:100C7000000CE30601D1401E80B28002104306E062
:100C8000E003000CE20701D0401C80B28002088023
:100C900006E05022125A1018CA002E495118445228
:100CA0002A8927E0002B02D0012B1BD021E0502302
:100CB0001B5A1818CB002749591841183E2C08D93F
:100CC000E002000CE30601D1401E80B28002104316
:100CD00006E0E003000CE20701D0401C80B2800275
:100CE000088006E05022125A1018CA0019495118FB
:100CF0004452EA88A3B22969306801F016F969788C
:100D00001548002902D0012908D00FE02A7831685F
:100D100092008B5A03400E48C03005E02A783168B3
:100D200092008B5A03400D4803438B522878316858
:100D30008200885A084B3033184010235840202333
:100D40005840034B80331843885200203872F0BD5E
:100D500000800000020400008F8F000080C00000AF
:100D600070B50446006840308088C00B02D0204631
:100D700000F02EFF20684030818849050BD581881E
:100D80000122920291438180204600F0CFF8002199
:100D9000204600F0F5F8206840308188490404D5E9
:100DA00081880122920391438180206840308188AC
:100DB000890404D5818801225203914381802068EF
:100DC000403081880425C904002910DA0188A9432C
:100DD0000180BD202168000240310880204600F0DB
:100DE000B1F8206840308188AA0291438180206850
:100DF00040308188090518D581880122D2029143AB
:100E000081802068403001880822114301802068D9
:100E10004030018829430180206840308088C043E9
:100E2000C00402D5204600F0D5F820684030818803
:100E3000890507D58188012252029143818020468D
:100E400000F096F8206840308188C90504D5818873
:100E5000FF2201329143818070BDF8B5002704461E
:100E6000002807D02646FF36E136707A0025002894
:100E700002D005E00120F8BD3572204600F03AF8B6
:100E80000320707201210BE01C20784302191046E8
:100E9000203041720772C572556395637F1CD5631C
:100EA0006068B842F0D800200BE01C2242431219BF
:100EB000FF32013255721072D57255619561401C36
:100EC000D56162688242F0D8206840300180206895
:100ED00040300580206840308580206840300582A1
:100EE000BD202268000240321080203425717172CA
:100EF0000020F8BD08B500680A49884210D10A48A8
:100F0000C2690121C9050A43C261C06900220840C3
:100F1000009011461F20FFF7BDFA1F20FFF7B0FA1F
:100F200008BD0000005C00400010024010B5C41D68
:100F3000FF34FA340121E06901F06BFEE06901F051
:100F400030FE10BD10B504468069002806D0074861
:100F5000016906229143016101F0DAF9FF34FF349F
:100F60000234E06901F040FE10BD000000ED00E039
:100F7000FF3010B5FF300230C06901F03BFE10BDFC
:100F80000246FF32E132137A012B08D0012313729B
:100F9000002906D020300171002010727047022015
:100FA00070470068802140308181F5E710B58721C6
:100FB00089000A580146FF31ED31104601F035FE37
:100FC00010BD00684030018B0122D2031143018320
:100FD0000020704710B50446FF30FF300230C06972
:100FE00001F064FEA069002804D0034801690622CC
:100FF0001143016110BD000000ED00E01C490B69C8
:10100000CA0313430B610B6993430B6119494A6887
:10101000B7231B069A434A604A6803681A434A602A
:101020004A6843681A434A604A6883681A434A60B8
:101030004A68120E12064A604A68C3681A434A6038
:101040004A68038A1B041A434A600A683F231B024A
:101050009A430A600A684069000202430A6008680D
:10106000402210430860086820221043086070473F
:1010700000100240006C0040F8B504460068354D91
:10108000C00340D5E96928040143E961E969324EAA
:10109000014000913068A91508433060FFF7AEF9B0
:1010A000074604E0FFF7AAF9C01B642821D830687E
:1010B000C005F7D5286A0326360261683040314002
:1010C000884220D0286A2A6AB043012109040A43D1
:1010D0002A622A6A8A432A62286280070ED5FFF7AD
:1010E0008DF9074607E0FFF789F9C11B1B488142CC
:1010F00001D90320F8BD286A8007F4D5286A616801
:10110000B043084328622078C00705D0286BA16847
:1011100080088000084328632078800605D5286B66
:1011200010218843E168084328632068800305D5BF
:10113000286B802188436169084328632088400523
:1011400005D5286B40218843216908432863002086
:10115000F8BD00000010024000700040881300003D
:10116000F8B5054649480E460068C007C00FB042B2
:101170000AD24648016849084900314301600068C5
:10118000C007C00FB04270D12878414C800705D508
:101190006068F0218843A968084360602878C00728
:1011A00053D06868012817D0022818D0032819D016
:1011B00021688907002958DA616889088900014394
:1011C0006160FFF71BF969680746012913D00229FE
:1011D0001DD0032927D034E021688903EAE721687C
:1011E0008901E7E7616BC903E4E7FFF707F9C11B72
:1011F0002848814223D860680007800F0128F4D175
:1012000023E0FFF7FBF8C11B2248814217D8606832
:101210000007800F0228F4D117E0FFF7EFF8C11B99
:101220001C4881420BD860680007800F0328F4D166
:101230000BE0FFF7E3F8C11B1648814201D90320F8
:10124000F8BD60680007800FF3D110480168C90736
:10125000C90FB1420BD90168490849003143016007
:101260000068C007C00FB04201D00120F8BD287847
:10127000400706D56068072109028843E9680843EA
:1012800060600020FFF7D8F80020F8BD0020024081
:10129000001002408813000010B500F011F8054955
:1012A0004968054A0906090F515CC84003490860AE
:1012B00010BD000000100240CC3000087C0100206E
:1012C00030B516A30FCB89B06C460FC417A30FCB54
:1012D0000FC41A494A680C20144604401848042CCC
:1012E00005D0184B082C04D00C2C00D1184609B09E
:1012F00030BD9402240F6D462C5DC96A04AD090708
:10130000090FD203695C920F022A02D0032A00D18E
:101310001846FEF70BFF6043E9E7000002030405EF
:10132000060708090A0B0C0D0E0F1010010203042A
:1013300005060708090A0B0C0D0E0F1000100240DD
:1013400000127A00006CDC02F8B504460078F84D13
:10135000C0075ED068680007800F012816D0686853
:101360000007800F022804D16868C003800F02289C
:101370000CD0286801263604B04328602868B700DE
:10138000B8432860FFF73AF800900CE02868800323
:101390003FD56068002870D03BE0FFF72FF8009938
:1013A000401A64286AD828688003F6D46068012847
:1013B0000AD0002801D0052808D029682846B14362
:1013C00029602968B94307E0284603E029682846D0
:1013D00039432960016831430160606800280CD0FE
:1013E000FFF70CF8064604E0FFF708F8801B6428B6
:1013F000D8D828688003F7D50BE0FEF7FFFF064634
:1014000004E0FEF7FBFF801B6428CBD8286880032C
:10141000F7D420780127800700283FDA68680007A2
:10142000800F13D068680007800F022804D1686815
:10143000C003800F012809D0E068002828681ED06A
:1014400038432860FEF7DAFF06460BE0286880077D
:101450000BD5E068012810D107E0FEF7CFFF801B15
:1014600002289FD828688007F7D52868F821884384
:101470002169C9000843286010E058E105E14008EF
:1014800040002860FEF7BAFF064604E0FEF7B6FF0C
:10149000801B022886D828688007F7D420780007A8
:1014A00021D5206A0028686A0ED038436862FEF7AA
:1014B000A5FF064604E0FEF7A1FF801B022897D88F
:1014C000686A8007F7D50EE0400840006862FEF7C2
:1014D00095FF064604E0FEF791FF801B022887D89F
:1014E000686A8007F7D4207804264007002866DA67
:1014F000E969B0060143E961E96901408D4800915D
:101500000168821511430160FEF778FF009005E045
:10151000FEF774FF0099401A6428A2D88548006835
:10152000C005F5D5286A400840002862286AB04303
:101530002862FEF763FF009006E0FEF75FFF009968
:10154000411A7D4881428CD8286A8007F5D4A0686A
:1015500001280BD0002801D0052809D0296A284687
:10156000490849002962296AB14307E0284603E097
:10157000296A284631432962016A39430162A06819
:1015800000280ED0FEF73AFF009006E0FEF736FF87
:101590000099411A6848814277D8286A8007F5D5B2
:1015A0000DE0FEF72BFF009006E0FEF727FF009905
:1015B000411A6148814268D8286A8007F5D42078AA
:1015C000C00634D5606901280CD0401D686B23D05B
:1015D00030436863686B400840006863FEF70EFFA5
:1015E000064621E0686B30436863686B3843686384
:1015F000FEF704FF064604E0FEF700FF801B02280A
:1016000043D8686B8007F7D5686BF8218843A169D8
:10161000C900084368630AE0B0436863F4E7FEF773
:10162000EDFE801B022830D8686B8007F7D4207845
:1016300080063CD568680007800F032815D06868CD
:101640000007800F022804D16868C003800F0328B8
:101650000BD0E069002819D0686B01210904084308
:101660006863FEF7CBFE06460BE0686BC0031ED531
:10167000E06901286ED11AE0FEF7C0FE801B022847
:1016800061D8686BC003F7D511E05CE0696B01209D
:10169000000481436963FEF7B1FE064604E0FEF7ED
:1016A000ADFE801B02284ED8686BC003F7D4606A79
:1016B00000284DD069680907890F02294AD0012600
:1016C00036060228286805D0B0432860FEF796FE4B
:1016D00004463AE0B0432860FEF790FE074604E077
:1016E000FEF78CFEC01B02282DD828688001F7D495
:1016F000E86A216B000900010843E862A16AE06A18
:10170000084369687B22D2039143084368602868D4
:1017100030432860FEF772FE044604E0FEF76EFEDA
:10172000001B02280FD828688001F7D510E011E0CF
:10173000001002400070004088130000FEF75EFEBB
:10174000001B022801D90320F8BD28688001F5D4C8
:101750000020F8BD0120F8BD7047F8B50268536855
:1017600091684C0605D4CC0703D05C0601D5C16C4A
:1017700004E08C0704D51B0602D5016D8847F8BD2F
:10178000FF2361331942FAD003464C064033002C44
:1017900009DA5C7F032CF2D0046E04252C43046626
:1017A000D468946800948D060124002D08DA056E33
:1017B000254305669568009515684026B543156074
:1017C000C90506D5016E08221143016601688968C2
:1017D000009101684A68E025AA434A605C77FFF7F8
:1017E000BBFFF8BDF8B5040006D025464035687F3C
:1017F0000026002802D005E00120F8BD2E77204603
:1018000000F058F802236B7720680168402291436A
:1018100001600722E0681202904201D9002101E034
:10182000012109030F273F02B84202D0904200D0A5
:10183000A662276B002F05D1904201D9236301E0F6
:1018400001202063A26860686369104322691A431B
:1018500010430123A2695B021A401043E26910435E
:10186000226A1043A26A104322681060206B02288B
:1018700004D1206802689B001A430260626B606AB0
:10188000A36910431B0C0427E2683B401A43104332
:101890000843216848602168E06A08612068C169DE
:1018A000034A1140C1610120266668770020F8BD17
:1018B000FFF7000000B50068114987B088421DD1CC
:1018C0001048826981140A4382618069084005904A
:1018D000F02000900220019000210320039002914B
:1018E000049109206946C006FEF7DEFC002211467D
:1018F0001920FEF7CFFD1920FEF7C2FD07B000BD8D
:10190000003001400010024070470000F0B504466E
:101910004034267F0025012E0CD001262677667FD5
:10192000012E0ED04668F71FFD3F08D18668002EB5
:1019300005D101E00220F0BD667F042E01D0022512
:1019400060E0002916D0002A14D0002B12D0002607
:101950008664876A01267603BC46B7420ED101260B
:1019600086640726C7683602B74207D8066B022E80
:1019700002D003E0012545E002268664667F042E3E
:1019800001D0052666770026066681638387C387B4
:101990000264A380E3800721C26809028A4203D956
:1019A0001A4AC2641A4A02E01A4AC2641A4A026512
:1019B00001225203944508D103681E68174F3E4028
:1019C0001E6003681E6816431E600122C36812036E
:1019D0008B4202D8E188022903D301684B68934304
:1019E00002E001684B6813434B6001684A68E023DA
:1019F0001A434A6000680168490603D4016840221E
:101A000011430160002020772846F0BD811F0008A7
:101A100089200008E91F0008D3200008FFDF00002C
:101A20000D4900680968884214D10C4901200870EA
:101A30000B480123418802889B028A1A9A4209D0E6
:101A4000064A8905521D1278890DC31A5A544188D5
:101A5000491C418070470000EC110020000000206C
:101A600080050020042204490428086902D090431C
:101A7000086170471043FBE700E000E0704700009A
:101A8000094910B5401E884201D9012010BD074CFC
:101A900060610321081F00F079F80020A061072091
:101AA0002061002010BD0000FFFFFF0000E000E00B
:101AB00010B5FFF7E3FF10BD10B586B0022000247B
:101AC00000900194694602941348FEF7EDFB042050
:101AD0000090012001900390092069460294C006FD
:101AE000FEF7E2FB0D484269012189050A43426184
:101AF00042690A400592426949110A4342614269BA
:101B00000A400592426949000A434261406908401F
:101B1000059006B010BD000000040048001002400F
:101B200010B50C480A4901600021416081600161E3
:101B3000416181610722016212024162C2608162D9
:101B400007220163C2624163FFF74CFE10BD000033
:101B500000300140EC11002010B500220749084870
:101B600000F0F0FE0749064801F0C5F806490448B0
:101B700000F021FD024801F00FF910BD2C000020FB
:101B800088090020440100201C0000208307FF2258
:101B9000DB0E9A408907090E994000280BDA0007EE
:101BA000000F0838830808489B001818C36993433E
:101BB0000B43C3617047830804489B001B181868D7
:101BC000904308431860704700ED00E000E400E037
:101BD000F0B585B004460020694688802046203054
:101BE000029079E199890F073F0F24D0BE00815BF5
:101BF0009980998809046FD5815BBF4A1140815350
:101C00001C2078430519FF350935A87A002820687B
:101C10007DD029788A00825A520479D55022125AEE
:101C2000CB00B64912185918515A8905890D0091EF
:101C30006FD0EA88C0E09989C9062AD40188B04AE1
:101C40001140018020685021095A2546283509187D
:101C50002878C200A9481018085A8005800D206411
:101C6000A16B0818A06300212046FEF734FC0298FF
:101C700000790028B5D068690028B2D102980079AF
:101C80008021084321684031888102980021017138
:101C900022E12546FF350388093569468B8089880E
:101CA00009051AD5118A09182878C2009348001D21
:101CB0001018085A294683059B0DAB61AA88E431A8
:101CC000206800F023F9206801888B4A11400180C8
:101CD0002046FFF76BF9FFE095E069468988090423
:101CE000D6D50188844A1140018020685021095AC4
:101CF000824E08182978361DC9008919405A830573
:101D00009B0DAB610CD0AA882969206802E033E002
:101D100045E055E000F0FAF8A96928694018286103
:101D200000212046FEF7E3FB20685021095A0818DD
:101D30008119E8683E280AD9C202120CC00601D1F6
:101D4000521E92B290020122D203104306E0C20357
:101D5000120CC00701D0521C92B290020880216878
:101D60000888684A10400122120350405200504037
:101D7000654A10430880AFE05021095A0A182978B3
:101D8000CB005E49091D5918515A8905890D0091EA
:101D900021D0AA882969009B00F0B8F81BE05022E6
:101DA000CB00125A55491218091D5918515A890564
:101DB000890D009104D02A892969009B00F0A6F8BA
:101DC000287821688200885A4D4B803318404E4B4A
:101DD000403318438852A96900980818A8612969F6
:101DE00000980A182A616B69002B03D0E9680098F3
:101DF000814204D929782046FEF779FB03E029784F
:101E00002046FEF703FE68468088000664D51C2045
:101E1000474320683D19825B39490A40825328357F
:101E2000A87A002812D02878216882008A5A52069F
:101E30001FD55022525A5118C20030481018085A63
:101E400083059B0DAB6125D0EA881FE020685021F7
:101E5000095A09182878C20028481018085A83051A
:101E60009B0DAB6121D0AA882969206800F05DF83C
:101E70001BE05022525A5218C1002048001D081879
:101E8000105A83059B0DAB6104D02A89296920680B
:101E900000F04BF8297820688900425A184B8033AB
:101EA0001A40184BF1331A43425220680246403020
:101EB000018A88182978114AC9008918405A800572
:101EC000800DA86129690A182A616B692978002B9D
:101ED00020460DD0FEF780FE2068024640329188F1
:101EE0006B469981090400D57CE6002005B0F0BD61
:101EF000FEF7F1FAF0E700008F0F00000204000087
:101F00000F8F00008FBF000080800000101801229A
:101F10005B1C92025B088018002B05D002880A80A7
:101F2000801C891C5B1EF9D17047101801225B1CB4
:101F3000920210B55B088018002B08D04A780C7804
:101F4000120222430280801C891C5B1EF6D110BD48
:101F500010B5092000220421C006FEF748FA10BD82
:101F600010B5092001220421C006FEF740FA10BD79
:101F700010B50248FFF7F1FB10BD0000EC11002086
:101F800010B50168C968026C1180016C891C01647C
:101F9000014640310A46C988491E0904090CD1800E
:101FA00006D10122816A5203914202D10649C164DD
:101FB00010BD01684A6840239A434A60C18F0029D6
:101FC000F6D100F0B5F810BDCD1F000808B50168C6
:101FD000CA686B461A801A884A6840239A434A6046
:101FE00000F0A6F808BD000070B501464031CD886C
:101FF000012424030368026C012D0FD9DB681380D0
:10200000026C921C0264CA88921E92B2CA80012A93
:102010000BD1026853682343536006E01D7B531CB9
:1020200003641570CA88521ECA80C98800290AD163
:102030000122816A5203914201684A6804D1224315
:102040004A600649C16470BD40239A434A60C18F0B
:102050000029F8D100F06CF870BD00006120000884
:1020600008B501680B7B6A4613701278826C521EA9
:10207000826408D14A6840239A434A60C18F00298C
:1020800001D100F055F808BD10B5816B02680988D0
:10209000D160816B891C8163C18F491E0904090CC1
:1020A000C18715D10122816A5203914205D101688D
:1020B0000A6801231B031A430A6001684A688023E7
:1020C0009A434A604621095A002901D100F030F8AC
:1020D00010BD10B5C38F0268816B022B07D309882E
:1020E000D160816B891C8163C18F891E05E04B1C07
:1020F000836309781173C18F491EC1870904090CD4
:1021000015D10122816A5203914205D101680A6802
:1021100001231B031A430A6001684A6880239A431B
:102120004A604621095A002901D100F001F810BD8A
:1021300070B50446006841682025A94341603221FA
:10214000204600F02BF8002802D0206E284320669D
:10215000226890680121C043C30620464030002B0E
:1021600007DB4177206E0221084320660A48906011
:1021700003E0226E002A04D041772046FFF7ECFAF4
:1021800070BD427F4177042A204602D0FFF748FC09
:1021900070BDFFF7B9FB70BDEFFF000070B50E46D4
:1021A0000B46032104460022C90200F011F8202545
:1021B000002807D1334600228021204600F05AF83B
:1021C000002803D0206E28432066032070BD000045
:1021D000FEB51D4617460E460446FEF70FF9009061
:1021E0003EE0032149028E4205D1002F03D1017B3D
:1021F000684601710079681C32D0002D05D0FEF7C9
:10220000FDF80099401AA8422AD320684168E022CC
:10221000914341606068C11FFD390CD10121A06864
:10222000C903884202D04911884204D1206801685C
:102230004022914301600120A16A4003814208D1FC
:1022400021680A680A4B1A400A6021680A6802433A
:102250000A60012040346077002020770320FEBD13
:10226000206881683140B942BBD10020FEBD00002A
:10227000FFDF0000F8B51D4616460F460446FEF780
:10228000BDF8009034E0681C32D0002D05D0FEF778
:10229000B5F80099401AA8422AD320684168E02284
:1022A000914341606068C11FFD390CD10121A068D4
:1022B000C903884202D04911884204D120680168CC
:1022C0004022914301600120A16A4003814208D16C
:1022D00021680A680A4B1A400A6021680A680243AA
:1022E0000A60012040346077002020770320F8BD89
:1022F000206880683840B042C5D10020F8BD000099
:10230000FFDF000010B5FEF77FF8FFF7D1FB10BD2F
:1023100030B59FB001202025002407900095099436
:102320006846FFF711F8002800D0FEE70720139059
:102330000320149015940121169413A8FEF710FFA2
:10234000002800D0FEE7012040041C94179017A835
:10235000FEF792FE002800D0FEE71348C269C103D1
:102360000A43C261C0690D9408401D9088000E9018
:102370000E481090222011900F9412950DA8FEF790
:102380003DFEFEF789FF7D21C900FDF7CFFEFFF777
:1023900077FB0420FFF766FB00221146501EFEF774
:1023A00079F81FB030BD0000001002407FBB000074
:1023B000134801680122114301604168114A11402C
:1023C00041600168104A11400160016801229204D5
:1023D0009143016041683F22120491434160C16A08
:1023E00009090901C162016BFF22D43291430163E3
:1023F000416B49084900416300218160704700003A
:10240000001002400CB8FF08FFFFF6FEFF30FF305F
:1024100002308069002806D0FF300021FF300230F2
:102420004161084670470220704770B5C21DFF32F7
:10243000FA321546946900F045FBE11DFF31FA318F
:10244000C860A869002808D04868E969CA6883217B
:10245000890061189047002070BD022070BD70B5E2
:1024600004460025812100F08FFA0121204600F06A
:102470008BFA8221204600F087FAFF34FF340234C1
:10248000A069002807D0E06940688047A06900F093
:1024900091FD0020A061284670BDFF3010B5FF30CF
:1024A0001A300AC8002B0AD0CC1DFF34FA34207829
:1024B000FF2804D09B6862789847FF202070002096
:1024C00010BD00000A210180004870476C00002008
:1024D0004321018000487047BC0000204321018057
:1024E0000048704778000020432101800048704771
:1024F00000010020F8B50446007C01260025760284
:10250000002830D0402302228121204600F034FBF5
:10251000402302220121204600F02EFB0823032243
:102520008221204600F028FB8720800000F044FD37
:10253000E11DFF31FA31886100281CD00746C869C7
:1025400000688047FF370020FF3702377861B861A5
:10255000207C7A68002810D040230121204600F01A
:1025600017FB2846F8BD334602228121204600F0A1
:1025700003FB3346CDE70125F3E73346EDE710B51E
:102580004321C9000958002913D0027C002A09D030
:10259000FF31FF3102314A684023012100F0F8FA8F
:1025A000002010BDFF31FF31023101235B024A6878
:1025B000F3E7022010BD02460220002904D0FF32BA
:1025C000FF3202320020D1617047FF30FF3002300D
:1025D0008069FF30FF300230416000207047FF30DB
:1025E000FF3002308069FF30FF30023002618160CD
:1025F0000020704770B50C46C11D0546FF31FA3109
:10260000207860228E69024022D0202A28D1E288D8
:10261000002A16D0000607D5C96960788B68314654
:102620009847E288314618E0F01DFF306178FA30B3
:102630000170A1794170E2883146284600F050F8D7
:102640000EE0C96960788B6800222146984707E050
:1026500060780A2804D103490122284600F05CF87A
:10266000002070BD6800002010B54321C900095842
:10267000002911D0FF31FF3102314A69002A01D00F
:10268000012010BD01224A610A8A93B28A68812121
:1026900000F014FB002010BD022010BD10B58522F3
:1026A0009200125852689047002010BD134610B592
:1026B0000A46002100F06CFA002010BD134610B548
:1026C0000A46002100F0FAFA002010BD10B50446B9
:1026D000802100F0D9FA0021204600F0D5FA10BD83
:1026E00010B5FF230324F5331C50C31DF9339A6042
:1026F000DA6013460A46002100F04AFA002010BDB5
:1027000010B5FF210522F5310A5000231A4619465B
:1027100000F03EFA002010BD10B5FF230224F5336F
:102720001C5082611346C2610A46002100F0C6FABD
:10273000002010BD10B5FF210422F5310A500023FE
:102740001A46194600F0BAFA002010BD10B50A4624
:10275000024903A000F0D4F8004810BDAC0B0020E3
:1027600043444320436F6E6669670000122008806F
:10277000004870474C00002010B50A46024903A0EB
:1027800000F0BEF8004810BDAC0B002043444320CD
:10279000496E7465726661636500000004200880FC
:1027A000004870474800002010B50A46024903A0BF
:1027B00000F0A6F8004810BDAC0B002053544D6942
:1027C00063726F656C656374726F6E69637300002A
:1027D00010B50A46024903A000F092F8004810BD67
:1027E000AC0B002053544D3332205669727475611E
:1027F0006C20436F6D506F727400000010B50A4674
:10280000024903A000F07CF8004810BDAC0B00208A
:102810003030303030303030303031410000000066
:10282000F8B50D4604464988FF300A0AFF300230E9
:10283000130000F0D9FB084905091649493E4649ED
:102840000069237C02682AE0217C02264069002975
:1028500005D0C16A684688470146467040E0816AF3
:10286000F8E7C9B20B0000F0BFFB0604080F13170E
:102870001E2F0069227C436802E00069227C836885
:1028800069461046984712E00069227CC368F7E762
:102890000069227C0369F3E70069237C4269694689
:1028A0001846904703E00069227C8369E8E7014607
:1028B00016E0217C002907D14069416B68468847B2
:1028C000F5E7217C002904D029462046FFF7FEFECB
:1028D000F8BD4069016B684688470722014642708F
:1028E000684600880028F3D0EA88002AF0D08242A7
:1028F00000D90246684602802046FFF70DFFF8BD6A
:1029000070B5002300281CD00446002502E06D1C91
:10291000EDB2641C2678002EF9D16C00A41C148042
:10292000CC5403225B1CCA5400245B1C06E0CA542E
:102930005B1CDAB28C54521CD3B2401C0278002AC1
:10294000F5D170BD10B5002813D0C31DFF33FA3385
:102950005C69002C01D000245C61002900D0196161
:10296000FF210123FD310B54027000F0B3F8002069
:1029700010BD022010BDFF3010B5FF300230006ADC
:10298000FDF77EFE002010BDFF3010B5FF30023095
:10299000006AFDF7BBFD002010BDFEB50446FF3008
:1029A000E51DE130FF35FA3513460190002908D0C6
:1029B00068694269002A49D00198007F032843D002
:1029C00044E02646FF3681362046716F14300229D6
:1029D00034D1C26881680092914207D9891A816016
:1029E0008AB219462046FFF769FE13E04068114697
:1029F0000746FDF79BFB002913D10098874210D3AF
:102A0000B06F87420DD2002211462046FFF756FED6
:102A10000020B06700231A461946204600F0B8F897
:102A20000CE06869C168002905D00198007F03287F
:102A300001D1204688472046FFF762FE287801280A
:102A400004D10020287001E0204690470020FEBD00
:102A500070B50546FF35E1352B4620331646044652
:102A6000002907D058698269002A29D0287F0328C5
:102A700024D025E0FF21F531E01D0959FD3003295F
:102A80001ED18268C1688A420BD9511A8160C06820
:102A9000814200D301468AB231462046FFF706FE46
:102AA0000EE058690169002904D0287F032801D16C
:102AB000204688472046FFF73DFE01E0204690472C
:102AC000002070BDFF3010B5FF300230006AFDF706
:102AD00033FE10BD10B51C49C41DC861FF341B492D
:102AE000FA341B4821620860022205208A6048608F
:102AF00003200A61C86000208861C8610846FEF7AB
:102B0000ACF9002218231146206AFDF7C7FC5823B0
:102B100000228021206AFDF7C1FCC0230022812110
:102B2000206AFDF7BBFCFF23113300220121206A3C
:102B3000FDF7B4FCFF23013300228221206AFDF758
:102B4000ADFC002010BD0000CC110020CC0F0020F7
:102B5000005C0040FF30CA09FF3049060230490ED0
:102B60001C23006A59430818002A01D0203001E0D4
:102B7000FF300130807A704710B5FF301C46FF30BF
:102B800002301346006A2246FDF7E0FD002010BD2A
:102B9000FF3010B5FF300230006AFDF737FF00202C
:102BA00010BD70B50022044640231146FFF7E4FF34
:102BB0004025FF20113005512B4600228021204660
:102BC000FFF7DAFFFF200121FD3025620155E01DEE
:102BD000FF30FA308169002904D0406921794268C8
:102BE00020469047002070BDFF30E130417F0177E3
:102BF0000020704710B5FF21FD31095C032906D183
:102C0000852189000958C969002900D0884700201A
:102C100010BD017400207047FF3010B5FF30023046
:102C2000006AFEF7ADF9002010BD70B504464120E2
:102C3000C0002018054600F04AF82146FF318131D6
:102C40000122084680304A67C2898A67007AC10635
:102C5000C90E0AD001290DD0022910D0C109C9011D
:102C6000204600F011F8002070BD2946204600F0F3
:102C700098F8F8E72946204600F07FF9F3E729465F
:102C8000204600F005F9EEE7FF3010B5FF300230C6
:102C9000006AFDF757FF002010BDFF3010B5FF3070
:102CA0000230006AFEF78DF9002010BDFF30E130E0
:102CB000017F41770421017700207047FF3010B574
:102CC000FF300230006AFDF787FF002010BD0A7850
:102CD00002704A784270CB788A781B02D218428000
:102CE0004B790A791B02D21882808A79C979090244
:102CF0005118C180704702460020002904D0FF32DD
:102D0000FF320232516170470220704710B58522B0
:102D1000920012580224002A04D01268904700281A
:102D200000D10024204610BD70B50E468978194D9B
:102D300004462970012904D931462046FFF7C6FC14
:102D400070BD2046FF30E130027F022A15D0032AF1
:102D5000F2D1002917D0606888420AD0C1B220465B
:102D6000FFF79CFC297861602046FFF7CFFF02281F
:102D7000E2D02046FFF7DEFC70BD0029F9D0032227
:102D800061600277F0E70222027720466160FFF778
:102D900085FCEEE76400002010B5FFF77EFF002001
:102DA00010BDF8B500220092C61DFF364C781746BC
:102DB000FA3632460125203A230000F015F90A3C84
:102DC000564150410906412B2841FFF729FD5DE09E
:102DD00004468888002818D1C888002815D188782A
:102DE00017464606107F760E03280ED0BE77314672
:102DF0002046FFF711FF2046FFF79CFC002E02D073
:102E00000220387742E03D7740E0204618E0FFF7A7
:102E10008BFF3BE0CB88012B12D1127F022A02D01C
:102E2000032A0DD104E0012201460831876013E036
:102E30000122011D10E0127F022A04D0032A02D0D1
:102E4000FFF744FC22E0C5607168002901D003212E
:102E5000C160014602220C31FFF75EFC16E0044619
:102E60004888012812D1756009E00446107F0228C5
:102E700001D00328C9D14888012807D1776070693B
:102E80008268204690472046FFF754FC0098F8BD22
:102E9000F8B504460D462878E61D4006FF360027A3
:102EA0000979800FFA36012809D06A78304620382F
:102EB000002A38D0012A1ED0032A3DD106E07069CD
:102EC00029468268204690470020F8BD007F0228EE
:102ED00017D003282CD16888002806D1002904D0F7
:102EE000802902D02046FFF7CFFE7069294682680C
:102EF0002046904713E0007F022802D0032817D114
:102F000004E0002918D080291AD115E0688800282B
:102F100012D1480603D02046FFF72DFDE5E72046F5
:102F2000FFF708FC08E0007F022807D003280BD039
:102F300029462046FFF7CAFB3846F8BD4806FBD0B5
:102F40002046FFF7A1FEF7E7C80904D04806400D68
:102F50000519143504E04806400D0519FF350535FF
:102F60002046FFF7F7FD002800D00120286002224C
:102F700029462046FFF7D0FBDEE770B50446FF3058
:102F8000E130007F0D4603280FD1287901280CD8A5
:102F9000852080000059826820469047E8880028F4
:102FA00006D12046FFF7C6FB02E02046FFF78EFB66
:102FB000002070BD7047000000487047AC0D002035
:102FC00010B502210348FDF70DFA002800D00120BA
:102FD00010BD00000004004810B50248FDF7C0FE17
:102FE00010BD0000CC0F002030B47446641E25785C
:102FF000641CAB4200D21D46635D5B00E31830BC2D
:10300000184702E008C8121F08C1002AFAD1704709
:103010007047002001E001C1121F002AFBD1704758
:1030200023488169012421438161224801681022DB
:1030300011430160FDF7F0F9FFF76AF9FEF73CFD77
:10304000FEF76EFDFEF788FD1B48022104704170FB
:103050001A4C002020801A49608008804880FFF7C1
:10306000AFFF002820D0FEF77BFF134A0123121D7B
:10307000111F1448FEF74AFC208861888842EED070
:103080000A1A012189028A1A8A42E8D281050E4A67
:10309000890D515C084A401C921C1170208001214E
:1030A0001046FDF7DFF8DAE7FEF752FFD7E700003A
:1030B00000100240000001400100002080050020B7
:1030C00084090020EC110020800100200000000095
:1030D000010203040102030406070809FC3000088A
:1030E0000000002080010000A0010008C03100089D
:1030F00080010020D014000012300008011533C2F6
:10310000011208132D021B08290413F9011B085191
:1031100008136D271B089D041AA9041AD1041AFD6F
:10312000041A4D041A790417040309041201140245
:1031300002021640830440572D0201020347B113D7
:103140000A0632022A40171C090243231125C03205
:1031500009041B01020B130524161001052401109C
:103160000901042402020524061701070582030849
:103170001C10090459320A1D07050102432C0705DA
:1031800081070938442A40072A8107112B0907447F
:103190000A2204440A16FF4413F5241B085F041393
:1031A000F52542081A9B0C1A0D041A2B04C11ADDCE
:1031B000101AD1041AE9042AC51C13127A0000005F
:04000005080000C12E
:00000001FF
